{
  "contractName": "DappToken",
  "abi": [
    {
      "constant": true,
      "inputs": [],
      "name": "totalSupply",
      "outputs": [
        {
          "name": "",
          "type": "uint256"
        }
      ],
      "payable": false,
      "stateMutability": "view",
      "type": "function"
    },
    {
      "inputs": [],
      "payable": false,
      "stateMutability": "nonpayable",
      "type": "constructor"
    }
  ],
  "bytecode": "0x60606040523415600e57600080fd5b620f4240600081905550609c806100266000396000f300606060405260043610603f576000357c0100000000000000000000000000000000000000000000000000000000900463ffffffff16806318160ddd146044575b600080fd5b3415604e57600080fd5b6054606a565b6040518082815260200191505060405180910390f35b600054815600a165627a7a7230582044441c20f7663a045bea622bdf7b4505393ff833a82e3e0e544928a36342bf4a0029",
  "source": "pragma solidity ^0.4.2;\n\n/**\n * The Dapp Token contract does this and that...\n */\ncontract DappToken {\n    // Consructor\n    // Number of Tokens\n    // Read Total of tokens\n    uint256 public totalSupply;\n    function DappToken () public {\n        totalSupply = 1000000; // state variable\n\n    }\n}\n",
  "sourcePath": "/Users/TemporaryAdmin/Desktop/hikeit.co/contracts/DappToken.sol",
  "compiler": {
    "name": "solc",
    "version": "0.4.21+commit.dfe3193c.Emscripten.clang"
  },
  "schemaVersion": "2.0.0",
  "updatedAt": "2018-04-13T12:29:38.275Z"
}